{
  "contractName": "EventContract",
  "abi": [
    {
      "anonymous": false,
      "inputs": [
        {
          "indexed": false,
          "internalType": "address",
          "name": "sender",
          "type": "address"
        },
        {
          "indexed": false,
          "internalType": "uint256",
          "name": "num",
          "type": "uint256"
        }
      ],
      "name": "Click",
      "type": "event"
    },
    {
      "inputs": [
        {
          "internalType": "uint256",
          "name": "up",
          "type": "uint256"
        }
      ],
      "name": "click",
      "outputs": [],
      "stateMutability": "payable",
      "type": "function"
    },
    {
      "inputs": [],
      "name": "getNum",
      "outputs": [
        {
          "internalType": "uint256",
          "name": "",
          "type": "uint256"
        }
      ],
      "stateMutability": "view",
      "type": "function"
    }
  ],
  "bytecode": "0x60806040526000805534801561001457600080fd5b50610269806100246000396000f3fe6080604052600436106100295760003560e01c806367e0badb1461002e578063e358bcf014610059575b600080fd5b34801561003a57600080fd5b50610043610075565b60405161005091906100ed565b60405180910390f35b610073600480360381019061006e9190610139565b61007e565b005b60008054905090565b8060008082825461008f9190610195565b925050819055507f9cb0084f66100232b6cdcee6915499fbfb0cd080317c9488bd71880f8cdb91dc336000546040516100c992919061020a565b60405180910390a150565b6000819050919050565b6100e7816100d4565b82525050565b600060208201905061010260008301846100de565b92915050565b600080fd5b610116816100d4565b811461012157600080fd5b50565b6000813590506101338161010d565b92915050565b60006020828403121561014f5761014e610108565b5b600061015d84828501610124565b91505092915050565b7f4e487b7100000000000000000000000000000000000000000000000000000000600052601160045260246000fd5b60006101a0826100d4565b91506101ab836100d4565b92508282019050808211156101c3576101c2610166565b5b92915050565b600073ffffffffffffffffffffffffffffffffffffffff82169050919050565b60006101f4826101c9565b9050919050565b610204816101e9565b82525050565b600060408201905061021f60008301856101fb565b61022c60208301846100de565b939250505056fea26469706673582212203ab3dd7da3a728c9365cd9caf4c87201d51c875b01363bca00ad2b3a6e4c8f0a64736f6c63430008110033",
  "immutableReferences": {},
  "source": "// SPDX-License-Identifier: LGPL-3.0+\n\npragma solidity ^0.8.2;\n\ncontract EventContract {\n\n    event Click(address sender, uint num);\n\n    uint num = 0;\n\n    function click(uint up) public payable {\n        num += up;\n        emit Click(msg.sender, num);\n    }\n\n    function getNum() public view returns(uint) {\n        return num;\n    }\n}\n",
  "sourcePath": "/Users/kim/workspace/solc-event/contracts/contracts/EventContract.sol",
  "compiler": {
    "name": "solc",
    "version": "0.8.17+commit.8df45f5f.Emscripten.clang"
  },
  "schemaVersion": "3.4.10",
  "updatedAt": "2023-02-20T09:51:45.767Z",
  "devdoc": {
    "kind": "dev",
    "methods": {},
    "version": 1
  },
  "userdoc": {
    "kind": "user",
    "methods": {},
    "version": 1
  }
}