{
  "contractName": "EventContract",
  "abi": [
    {
      "anonymous": false,
      "inputs": [
        {
          "indexed": false,
          "internalType": "address",
          "name": "sender",
          "type": "address"
        },
        {
          "indexed": false,
          "internalType": "uint256",
          "name": "num",
          "type": "uint256"
        }
      ],
      "name": "Click",
      "type": "event"
    },
    {
      "inputs": [
        {
          "internalType": "uint256",
          "name": "up",
          "type": "uint256"
        }
      ],
      "name": "click",
      "outputs": [],
      "stateMutability": "payable",
      "type": "function"
    }
  ],
  "bytecode": "0x60806040526000805534801561001457600080fd5b5061020f806100246000396000f3fe60806040526004361061001e5760003560e01c8063e358bcf014610023575b600080fd5b61003d600480360381019061003891906100d0565b61003f565b005b80600080828254610050919061012c565b925050819055507f9cb0084f66100232b6cdcee6915499fbfb0cd080317c9488bd71880f8cdb91dc3360005460405161008a9291906101b0565b60405180910390a150565b600080fd5b6000819050919050565b6100ad8161009a565b81146100b857600080fd5b50565b6000813590506100ca816100a4565b92915050565b6000602082840312156100e6576100e5610095565b5b60006100f4848285016100bb565b91505092915050565b7f4e487b7100000000000000000000000000000000000000000000000000000000600052601160045260246000fd5b60006101378261009a565b91506101428361009a565b925082820190508082111561015a576101596100fd565b5b92915050565b600073ffffffffffffffffffffffffffffffffffffffff82169050919050565b600061018b82610160565b9050919050565b61019b81610180565b82525050565b6101aa8161009a565b82525050565b60006040820190506101c56000830185610192565b6101d260208301846101a1565b939250505056fea2646970667358221220e4e6e719aaa7201fe7852fa3cd7e95cc6e3f4ef8f4d535f380e53c1482a8f0bc64736f6c63430008110033",
  "immutableReferences": {},
  "source": "// SPDX-License-Identifier: LGPL-3.0+\n\npragma solidity ^0.8.2;\n\ncontract EventContract {\n\n    event Click(address sender, uint num);\n\n    uint num = 0;\n\n    function click(uint up) public payable {\n        num += up;\n        emit Click(msg.sender, num);\n    }\n}\n",
  "sourcePath": "/Users/kim/workspace/solc-event/contracts/contracts/EventContract.sol",
  "compiler": {
    "name": "solc",
    "version": "0.8.17+commit.8df45f5f.Emscripten.clang"
  },
  "schemaVersion": "3.4.11",
  "updatedAt": "2023-02-20T08:22:21.734Z",
  "devdoc": {
    "kind": "dev",
    "methods": {},
    "version": 1
  },
  "userdoc": {
    "kind": "user",
    "methods": {},
    "version": 1
  }
}